{
  "contractName": "HealthCareIDM",
  "abi": [
    {
      "inputs": [
        {
          "internalType": "address",
          "name": "",
          "type": "address"
        }
      ],
      "name": "headlthIdtrans",
      "outputs": [
        {
          "internalType": "string",
          "name": "ownerType",
          "type": "string"
        },
        {
          "internalType": "enum HealthCareIDM.Stages",
          "name": "state",
          "type": "uint8"
        }
      ],
      "stateMutability": "view",
      "type": "function"
    },
    {
      "inputs": [
        {
          "internalType": "address",
          "name": "",
          "type": "address"
        },
        {
          "internalType": "string",
          "name": "",
          "type": "string"
        }
      ],
      "name": "isHealthIDExist",
      "outputs": [
        {
          "internalType": "address",
          "name": "",
          "type": "address"
        }
      ],
      "stateMutability": "view",
      "type": "function"
    },
    {
      "inputs": [
        {
          "internalType": "string",
          "name": "_ownerType",
          "type": "string"
        }
      ],
      "name": "createHealthSCUser",
      "outputs": [],
      "stateMutability": "nonpayable",
      "type": "function"
    },
    {
      "inputs": [
        {
          "internalType": "address",
          "name": "_healthId",
          "type": "address"
        },
        {
          "internalType": "enum HealthCareIDM.Stages",
          "name": "_state",
          "type": "uint8"
        },
        {
          "internalType": "contract RegistrySC",
          "name": "_registrySCAddr",
          "type": "address"
        }
      ],
      "name": "setState",
      "outputs": [],
      "stateMutability": "nonpayable",
      "type": "function"
    },
    {
      "inputs": [
        {
          "internalType": "address",
          "name": "_healthId",
          "type": "address"
        }
      ],
      "name": "getState",
      "outputs": [
        {
          "internalType": "enum HealthCareIDM.Stages",
          "name": "",
          "type": "uint8"
        }
      ],
      "stateMutability": "view",
      "type": "function"
    },
    {
      "inputs": [
        {
          "internalType": "address",
          "name": "_addr",
          "type": "address"
        },
        {
          "internalType": "string",
          "name": "_ownerType",
          "type": "string"
        }
      ],
      "name": "getHealthId",
      "outputs": [
        {
          "internalType": "address",
          "name": "",
          "type": "address"
        }
      ],
      "stateMutability": "view",
      "type": "function"
    },
    {
      "inputs": [
        {
          "internalType": "address",
          "name": "_healthId",
          "type": "address"
        }
      ],
      "name": "getHealthIdTrans",
      "outputs": [
        {
          "components": [
            {
              "internalType": "string",
              "name": "ownerType",
              "type": "string"
            },
            {
              "internalType": "enum HealthCareIDM.Stages",
              "name": "state",
              "type": "uint8"
            }
          ],
          "internalType": "struct HealthCareIDM.HealthIdTransaction",
          "name": "",
          "type": "tuple"
        }
      ],
      "stateMutability": "view",
      "type": "function"
    }
  ],
  "bytecode": "0x608060405234801561001057600080fd5b50612a15806100206000396000f3fe60806040523480156200001157600080fd5b5060043610620000885760003560e01c8063496518d11162000063578063496518d1146200012f578063afd553371462000165578063bf0ac79d1462000185578063c3f8f6f414620001bc5762000088565b8063054b3d48146200008d5780631bab58f514620000c35780632b8a5c8814620000f9575b600080fd5b620000ab6004803603810190620000a59190620009fc565b620001dc565b604051620000ba919062000b93565b60405180910390f35b620000e16004803603810190620000db9190620009fc565b62000311565b604051620000f0919062000bc8565b60405180910390f35b62000117600480360381019062000111919062000d36565b62000369565b60405162000126919062000dad565b60405180910390f35b6200014d600480360381019062000147919062000d36565b620003f1565b6040516200015c919062000dad565b60405180910390f35b6200018360048036038101906200017d919062000e37565b62000449565b005b620001a360048036038101906200019d9190620009fc565b6200057d565b604051620001b392919062000ee5565b60405180910390f35b620001da6004803603810190620001d4919062000f19565b6200063e565b005b620001e662000946565b6000808373ffffffffffffffffffffffffffffffffffffffff1673ffffffffffffffffffffffffffffffffffffffff168152602001908152602001600020604051806040016040529081600082018054620002419062000f99565b80601f01602080910402602001604051908101604052809291908181526020018280546200026f9062000f99565b8015620002c05780601f106200029457610100808354040283529160200191620002c0565b820191906000526020600020905b815481529060010190602001808311620002a257829003601f168201915b505050505081526020016001820160009054906101000a900460ff166002811115620002f157620002f062000ad2565b5b600281111562000306576200030562000ad2565b5b815250509050919050565b60008060008373ffffffffffffffffffffffffffffffffffffffff1673ffffffffffffffffffffffffffffffffffffffff16815260200190815260200160002060010160009054906101000a900460ff169050919050565b6000600160008473ffffffffffffffffffffffffffffffffffffffff1673ffffffffffffffffffffffffffffffffffffffff16815260200190815260200160002082604051620003ba919062001010565b908152602001604051809103902060009054906101000a900473ffffffffffffffffffffffffffffffffffffffff16905092915050565b6001602052816000526040600020818051602081018201805184825260208301602085012081835280955050505050506000915091509054906101000a900473ffffffffffffffffffffffffffffffffffffffff1681565b808073ffffffffffffffffffffffffffffffffffffffff1663b166477f336040518263ffffffff1660e01b815260040162000485919062000dad565b602060405180830381865afa158015620004a3573d6000803e3d6000fd5b505050506040513d601f19601f82011682018060405250810190620004c9919062001066565b6200050b576040517f08c379a00000000000000000000000000000000000000000000000000000000081526004016200050290620010e8565b60405180910390fd5b826000808673ffffffffffffffffffffffffffffffffffffffff1673ffffffffffffffffffffffffffffffffffffffff16815260200190815260200160002060010160006101000a81548160ff0219169083600281111562000572576200057162000ad2565b5b021790555050505050565b6000602052806000526040600020600091509050806000018054620005a29062000f99565b80601f0160208091040260200160405190810160405280929190818152602001828054620005d09062000f99565b8015620006215780601f10620005f55761010080835404028352916020019162000621565b820191906000526020600020905b8154815290600101906020018083116200060357829003601f168201915b5050505050908060010160009054906101000a900460ff16905082565b600073ffffffffffffffffffffffffffffffffffffffff16600160003373ffffffffffffffffffffffffffffffffffffffff1673ffffffffffffffffffffffffffffffffffffffff16815260200190815260200160002082604051620006a5919062001010565b908152602001604051809103902060009054906101000a900473ffffffffffffffffffffffffffffffffffffffff1673ffffffffffffffffffffffffffffffffffffffff16146200072d576040517f08c379a000000000000000000000000000000000000000000000000000000000815260040162000724906200115a565b60405180910390fd5b336040516200073c9062000975565b62000748919062000dad565b604051809103906000f08015801562000765573d6000803e3d6000fd5b50600260006101000a81548173ffffffffffffffffffffffffffffffffffffffff021916908373ffffffffffffffffffffffffffffffffffffffff160217905550600260009054906101000a900473ffffffffffffffffffffffffffffffffffffffff16600160003373ffffffffffffffffffffffffffffffffffffffff1673ffffffffffffffffffffffffffffffffffffffff1681526020019081526020016000208260405162000818919062001010565b908152602001604051809103902060006101000a81548173ffffffffffffffffffffffffffffffffffffffff021916908373ffffffffffffffffffffffffffffffffffffffff16021790555060006040518060400160405280838152602001600060028111156200088e576200088d62000ad2565b5b815250905080600080600260009054906101000a900473ffffffffffffffffffffffffffffffffffffffff1673ffffffffffffffffffffffffffffffffffffffff1673ffffffffffffffffffffffffffffffffffffffff16815260200190815260200160002060008201518160000190816200090b919062001358565b5060208201518160010160006101000a81548160ff021916908360028111156200093a576200093962000ad2565b5b02179055509050505050565b604051806040016040528060608152602001600060028111156200096f576200096e62000ad2565b5b81525090565b6115a0806200144083390190565b6000604051905090565b600080fd5b600080fd5b600073ffffffffffffffffffffffffffffffffffffffff82169050919050565b6000620009c48262000997565b9050919050565b620009d681620009b7565b8114620009e257600080fd5b50565b600081359050620009f681620009cb565b92915050565b60006020828403121562000a155762000a146200098d565b5b600062000a2584828501620009e5565b91505092915050565b600081519050919050565b600082825260208201905092915050565b60005b8381101562000a6a57808201518184015260208101905062000a4d565b8381111562000a7a576000848401525b50505050565b6000601f19601f8301169050919050565b600062000a9e8262000a2e565b62000aaa818562000a39565b935062000abc81856020860162000a4a565b62000ac78162000a80565b840191505092915050565b7f4e487b7100000000000000000000000000000000000000000000000000000000600052602160045260246000fd5b6003811062000b155762000b1462000ad2565b5b50565b600081905062000b288262000b01565b919050565b600062000b3a8262000b18565b9050919050565b62000b4c8162000b2d565b82525050565b6000604083016000830151848203600086015262000b71828262000a91565b915050602083015162000b88602086018262000b41565b508091505092915050565b6000602082019050818103600083015262000baf818462000b52565b905092915050565b62000bc28162000b2d565b82525050565b600060208201905062000bdf600083018462000bb7565b92915050565b600080fd5b600080fd5b7f4e487b7100000000000000000000000000000000000000000000000000000000600052604160045260246000fd5b62000c298262000a80565b810181811067ffffffffffffffff8211171562000c4b5762000c4a62000bef565b5b80604052505050565b600062000c6062000983565b905062000c6e828262000c1e565b919050565b600067ffffffffffffffff82111562000c915762000c9062000bef565b5b62000c9c8262000a80565b9050602081019050919050565b82818337600083830152505050565b600062000ccf62000cc98462000c73565b62000c54565b90508281526020810184848401111562000cee5762000ced62000bea565b5b62000cfb84828562000ca9565b509392505050565b600082601f83011262000d1b5762000d1a62000be5565b5b813562000d2d84826020860162000cb8565b91505092915050565b6000806040838503121562000d505762000d4f6200098d565b5b600062000d6085828601620009e5565b925050602083013567ffffffffffffffff81111562000d845762000d8362000992565b5b62000d928582860162000d03565b9150509250929050565b62000da781620009b7565b82525050565b600060208201905062000dc4600083018462000d9c565b92915050565b6003811062000dd857600080fd5b50565b60008135905062000dec8162000dca565b92915050565b600062000dff82620009b7565b9050919050565b62000e118162000df2565b811462000e1d57600080fd5b50565b60008135905062000e318162000e06565b92915050565b60008060006060848603121562000e535762000e526200098d565b5b600062000e6386828701620009e5565b935050602062000e768682870162000ddb565b925050604062000e898682870162000e20565b9150509250925092565b600082825260208201905092915050565b600062000eb18262000a2e565b62000ebd818562000e93565b935062000ecf81856020860162000a4a565b62000eda8162000a80565b840191505092915050565b6000604082019050818103600083015262000f01818562000ea4565b905062000f12602083018462000bb7565b9392505050565b60006020828403121562000f325762000f316200098d565b5b600082013567ffffffffffffffff81111562000f535762000f5262000992565b5b62000f618482850162000d03565b91505092915050565b7f4e487b7100000000000000000000000000000000000000000000000000000000600052602260045260246000fd5b6000600282049050600182168062000fb257607f821691505b60208210810362000fc85762000fc762000f6a565b5b50919050565b600081905092915050565b600062000fe68262000a2e565b62000ff2818562000fce565b93506200100481856020860162000a4a565b80840191505092915050565b60006200101e828462000fd9565b915081905092915050565b60008115159050919050565b620010408162001029565b81146200104c57600080fd5b50565b600081519050620010608162001035565b92915050565b6000602082840312156200107f576200107e6200098d565b5b60006200108f848285016200104f565b91505092915050565b7f596f7520617265206e6f7420726567756c61746f720000000000000000000000600082015250565b6000620010d060158362000e93565b9150620010dd8262001098565b602082019050919050565b600060208201905081810360008301526200110381620010c1565b9050919050565b7f4845414c5448204143434f554e5420414c52454144592050524553454e540000600082015250565b600062001142601e8362000e93565b91506200114f826200110a565b602082019050919050565b60006020820190508181036000830152620011758162001133565b9050919050565b60008190508160005260206000209050919050565b60006020601f8301049050919050565b600082821b905092915050565b600060088302620011e07fffffffffffffffffffffffffffffffffffffffffffffffffffffffffffffffff82620011a1565b620011ec8683620011a1565b95508019841693508086168417925050509392505050565b6000819050919050565b6000819050919050565b600062001239620012336200122d8462001204565b6200120e565b62001204565b9050919050565b6000819050919050565b620012558362001218565b6200126d620012648262001240565b848454620011ae565b825550505050565b600090565b6200128462001275565b620012918184846200124a565b505050565b5b81811015620012b957620012ad6000826200127a565b60018101905062001297565b5050565b601f8211156200130857620012d2816200117c565b620012dd8462001191565b81016020851015620012ed578190505b62001305620012fc8562001191565b83018262001296565b50505b505050565b600082821c905092915050565b60006200132d600019846008026200130d565b1980831691505092915050565b60006200134883836200131a565b9150826002028217905092915050565b620013638262000a2e565b67ffffffffffffffff8111156200137f576200137e62000bef565b5b6200138b825462000f99565b62001398828285620012bd565b600060209050601f831160018114620013d05760008415620013bb578287015190505b620013c785826200133a565b86555062001437565b601f198416620013e0866200117c565b60005b828110156200140a57848901518255600182019150602085019450602081019050620013e3565b868310156200142a578489015162001426601f8916826200131a565b8355505b6001600288020188555050505b50505050505056fe60806040523480156200001157600080fd5b50604051620015a0380380620015a083398181016040528101906200003791906200010a565b60008060006101000a81548160ff02191690831515021790555080600060016101000a81548173ffffffffffffffffffffffffffffffffffffffff021916908373ffffffffffffffffffffffffffffffffffffffff16021790555042600181905550506200013c565b600080fd5b600073ffffffffffffffffffffffffffffffffffffffff82169050919050565b6000620000d282620000a5565b9050919050565b620000e481620000c5565b8114620000f057600080fd5b50565b6000815190506200010481620000d9565b92915050565b600060208284031215620001235762000122620000a0565b5b60006200013384828501620000f3565b91505092915050565b611454806200014c6000396000f3fe608060405234801561001057600080fd5b50600436106100a95760003560e01c80635c975abb116100715780635c975abb146101405780635ee27ac21461015e578063848cb5c61461017c57806385e68531146101865780639f8a3922146101a2578063fb3f78f3146101be576100a9565b80630ae5e739146100ae578063148eacdd146100ca5780631d9023cb146100d45780632131e102146100f25780632212dbc314610122575b600080fd5b6100c860048036038101906100c39190610ae6565b6101dc565b005b6100d2610354565b005b6100dc6103ee565b6040516100e99190610b2e565b60405180910390f35b61010c60048036038101906101079190610ae6565b6103fd565b6040516101199190610b2e565b60405180910390f35b61012a61041d565b6040516101379190610b62565b60405180910390f35b610148610427565b6040516101559190610b2e565b60405180910390f35b61016661043d565b6040516101739190610b8c565b60405180910390f35b6101846104f7565b005b6101a0600480360381019061019b9190610ae6565b610591565b005b6101bc60048036038101906101b79190610ced565b610708565b005b6101c66107ef565b6040516101d39190610dbe565b60405180910390f35b600060019054906101000a900473ffffffffffffffffffffffffffffffffffffffff1673ffffffffffffffffffffffffffffffffffffffff163373ffffffffffffffffffffffffffffffffffffffff161461026c576040517f08c379a000000000000000000000000000000000000000000000000000000000815260040161026390610e2c565b60405180910390fd5b600360008273ffffffffffffffffffffffffffffffffffffffff1673ffffffffffffffffffffffffffffffffffffffff16815260200190815260200160002060009054906101000a900460ff16156102f9576040517f08c379a00000000000000000000000000000000000000000000000000000000081526004016102f090610e98565b60405180910390fd5b6001600360008373ffffffffffffffffffffffffffffffffffffffff1673ffffffffffffffffffffffffffffffffffffffff16815260200190815260200160002060006101000a81548160ff02191690831515021790555050565b600060019054906101000a900473ffffffffffffffffffffffffffffffffffffffff1673ffffffffffffffffffffffffffffffffffffffff163373ffffffffffffffffffffffffffffffffffffffff16146103e4576040517f08c379a00000000000000000000000000000000000000000000000000000000081526004016103db90610e2c565b60405180910390fd5b6103ec610915565b565b60006103f8610427565b905090565b60036020528060005260406000206000915054906101000a900460ff1681565b6000600154905090565b60008060009054906101000a900460ff16905090565b60008073ffffffffffffffffffffffffffffffffffffffff16600060019054906101000a900473ffffffffffffffffffffffffffffffffffffffff1673ffffffffffffffffffffffffffffffffffffffff16036104cf576040517f08c379a00000000000000000000000000000000000000000000000000000000081526004016104c690610f04565b60405180910390fd5b600060019054906101000a900473ffffffffffffffffffffffffffffffffffffffff16905090565b600060019054906101000a900473ffffffffffffffffffffffffffffffffffffffff1673ffffffffffffffffffffffffffffffffffffffff163373ffffffffffffffffffffffffffffffffffffffff1614610587576040517f08c379a000000000000000000000000000000000000000000000000000000000815260040161057e90610e2c565b60405180910390fd5b61058f610977565b565b600060019054906101000a900473ffffffffffffffffffffffffffffffffffffffff1673ffffffffffffffffffffffffffffffffffffffff163373ffffffffffffffffffffffffffffffffffffffff1614610621576040517f08c379a000000000000000000000000000000000000000000000000000000000815260040161061890610e2c565b60405180910390fd5b600360008273ffffffffffffffffffffffffffffffffffffffff1673ffffffffffffffffffffffffffffffffffffffff16815260200190815260200160002060009054906101000a900460ff166106ad576040517f08c379a00000000000000000000000000000000000000000000000000000000081526004016106a490610f70565b60405180910390fd5b6000600360008373ffffffffffffffffffffffffffffffffffffffff1673ffffffffffffffffffffffffffffffffffffffff16815260200190815260200160002060006101000a81548160ff02191690831515021790555050565b600060019054906101000a900473ffffffffffffffffffffffffffffffffffffffff1673ffffffffffffffffffffffffffffffffffffffff163373ffffffffffffffffffffffffffffffffffffffff1614610798576040517f08c379a000000000000000000000000000000000000000000000000000000000815260040161078f90610e2c565b60405180910390fd5b60008151036107dc576040517f08c379a00000000000000000000000000000000000000000000000000000000081526004016107d390610fdc565b60405180910390fd5b80600290816107eb9190611208565b5050565b60606107f96109d9565b600360003373ffffffffffffffffffffffffffffffffffffffff1673ffffffffffffffffffffffffffffffffffffffff16815260200190815260200160002060009054906101000a900460ff16610885576040517f08c379a000000000000000000000000000000000000000000000000000000000815260040161087c90611326565b60405180910390fd5b600280546108929061102b565b80601f01602080910402602001604051908101604052809291908181526020018280546108be9061102b565b801561090b5780601f106108e05761010080835404028352916020019161090b565b820191906000526020600020905b8154815290600101906020018083116108ee57829003601f168201915b5050505050905090565b61091d6109d9565b60016000806101000a81548160ff0219169083151502179055507f62e78cea01bee320cd4e420270b5ea74000d11b0c9f74754ebdbfc544b05a258610960610a23565b60405161096d9190610b8c565b60405180910390a1565b61097f610a2b565b60008060006101000a81548160ff0219169083151502179055507f5db9ee0a495bf2e6ff9c91a7834c1ba4fdd244a5e8aa4e537bd38aeae4b073aa6109c2610a23565b6040516109cf9190610b8c565b60405180910390a1565b6109e1610427565b15610a21576040517f08c379a0000000000000000000000000000000000000000000000000000000008152600401610a1890611392565b60405180910390fd5b565b600033905090565b610a33610427565b610a72576040517f08c379a0000000000000000000000000000000000000000000000000000000008152600401610a69906113fe565b60405180910390fd5b565b6000604051905090565b600080fd5b600080fd5b600073ffffffffffffffffffffffffffffffffffffffff82169050919050565b6000610ab382610a88565b9050919050565b610ac381610aa8565b8114610ace57600080fd5b50565b600081359050610ae081610aba565b92915050565b600060208284031215610afc57610afb610a7e565b5b6000610b0a84828501610ad1565b91505092915050565b60008115159050919050565b610b2881610b13565b82525050565b6000602082019050610b436000830184610b1f565b92915050565b6000819050919050565b610b5c81610b49565b82525050565b6000602082019050610b776000830184610b53565b92915050565b610b8681610aa8565b82525050565b6000602082019050610ba16000830184610b7d565b92915050565b600080fd5b600080fd5b6000601f19601f8301169050919050565b7f4e487b7100000000000000000000000000000000000000000000000000000000600052604160045260246000fd5b610bfa82610bb1565b810181811067ffffffffffffffff82111715610c1957610c18610bc2565b5b80604052505050565b6000610c2c610a74565b9050610c388282610bf1565b919050565b600067ffffffffffffffff821115610c5857610c57610bc2565b5b610c6182610bb1565b9050602081019050919050565b82818337600083830152505050565b6000610c90610c8b84610c3d565b610c22565b905082815260208101848484011115610cac57610cab610bac565b5b610cb7848285610c6e565b509392505050565b600082601f830112610cd457610cd3610ba7565b5b8135610ce4848260208601610c7d565b91505092915050565b600060208284031215610d0357610d02610a7e565b5b600082013567ffffffffffffffff811115610d2157610d20610a83565b5b610d2d84828501610cbf565b91505092915050565b600081519050919050565b600082825260208201905092915050565b60005b83811015610d70578082015181840152602081019050610d55565b83811115610d7f576000848401525b50505050565b6000610d9082610d36565b610d9a8185610d41565b9350610daa818560208601610d52565b610db381610bb1565b840191505092915050565b60006020820190508181036000830152610dd88184610d85565b905092915050565b7f594f5520415245204e4f54204f574e4552000000000000000000000000000000600082015250565b6000610e16601183610d41565b9150610e2182610de0565b602082019050919050565b60006020820190508181036000830152610e4581610e09565b9050919050565b7f41636365737320616c7265616479206772616e74656400000000000000000000600082015250565b6000610e82601683610d41565b9150610e8d82610e4c565b602082019050919050565b60006020820190508181036000830152610eb181610e75565b9050919050565b7f4f776e6572206973206e6f742073657400000000000000000000000000000000600082015250565b6000610eee601083610d41565b9150610ef982610eb8565b602082019050919050565b60006020820190508181036000830152610f1d81610ee1565b9050919050565b7f41636365737320616c7265616479207265766f6b656400000000000000000000600082015250565b6000610f5a601683610d41565b9150610f6582610f24565b602082019050919050565b60006020820190508181036000830152610f8981610f4d565b9050919050565b7f4861736849642073686f756c64206e6f74206265206e756c6c00000000000000600082015250565b6000610fc6601983610d41565b9150610fd182610f90565b602082019050919050565b60006020820190508181036000830152610ff581610fb9565b9050919050565b7f4e487b7100000000000000000000000000000000000000000000000000000000600052602260045260246000fd5b6000600282049050600182168061104357607f821691505b60208210810361105657611055610ffc565b5b50919050565b60008190508160005260206000209050919050565b60006020601f8301049050919050565b600082821b905092915050565b6000600883026110be7fffffffffffffffffffffffffffffffffffffffffffffffffffffffffffffffff82611081565b6110c88683611081565b95508019841693508086168417925050509392505050565b6000819050919050565b60006111056111006110fb84610b49565b6110e0565b610b49565b9050919050565b6000819050919050565b61111f836110ea565b61113361112b8261110c565b84845461108e565b825550505050565b600090565b61114861113b565b611153818484611116565b505050565b5b818110156111775761116c600082611140565b600181019050611159565b5050565b601f8211156111bc5761118d8161105c565b61119684611071565b810160208510156111a5578190505b6111b96111b185611071565b830182611158565b50505b505050565b600082821c905092915050565b60006111df600019846008026111c1565b1980831691505092915050565b60006111f883836111ce565b9150826002028217905092915050565b61121182610d36565b67ffffffffffffffff81111561122a57611229610bc2565b5b611234825461102b565b61123f82828561117b565b600060209050601f8311600181146112725760008415611260578287015190505b61126a85826111ec565b8655506112d2565b601f1984166112808661105c565b60005b828110156112a857848901518255600182019150602085019450602081019050611283565b868310156112c557848901516112c1601f8916826111ce565b8355505b6001600288020188555050505b505050505050565b7f594f5520415245204e4f5420414c4c4f57454400000000000000000000000000600082015250565b6000611310601383610d41565b915061131b826112da565b602082019050919050565b6000602082019050818103600083015261133f81611303565b9050919050565b7f5061757361626c653a2070617573656400000000000000000000000000000000600082015250565b600061137c601083610d41565b915061138782611346565b602082019050919050565b600060208201905081810360008301526113ab8161136f565b9050919050565b7f5061757361626c653a206e6f7420706175736564000000000000000000000000600082015250565b60006113e8601483610d41565b91506113f3826113b2565b602082019050919050565b60006020820190508181036000830152611417816113db565b905091905056fea26469706673582212208e6eabed227aad1227d2a6edad2a7a848f256c67db2089f8e7860b7dd5cf4c9c64736f6c634300080f0033a2646970667358221220827231309f34f0609330d30b3f4c109c8a24ec14bbb6fdc68637256aa098cce664736f6c634300080f0033",
  "immutableReferences": {},
  "source": "// SPDX-License-Identifier: MIT\npragma solidity >=0.4.22 <0.9.0;\n\nimport \"./HealthSC.sol\";\nimport \"./RegistrySC.sol\";\n\ncontract HealthCareIDM {\n    enum Stages {\n        REGISTRATION_INITIATED,\n        VERIFICATION_PENDING,\n        VERIFICATION_COMPLETED\n    }\n\n    struct HealthIdTransaction {\n        string ownerType;\n        Stages state;\n    }\n\n    //Health ID Contract ->  HealthIdTransaction\n    mapping(address => HealthIdTransaction) public headlthIdtrans;\n\n    //Patient/Hospital address -> Health ID\n    //mapping(address => address) public healthIdPerAddress;\n    mapping(address => mapping(string => address)) public isHealthIDExist;\n    HealthSC newhealthSC;\n\n    modifier onlyRegulator(RegistrySC _registrySCAddr) {\n        require(\n            (_registrySCAddr.verify_regulator(msg.sender)),\n            \"You are not regulator\"\n        );\n        _;\n    }\n\n    function createHealthSCUser(string memory _ownerType) external {\n        require(\n            isHealthIDExist[msg.sender][_ownerType] == address(0),\n            \"HEALTH ACCOUNT ALREADY PRESENT\"\n        );\n        newhealthSC = new HealthSC(msg.sender);\n        isHealthIDExist[msg.sender][_ownerType] = address(newhealthSC);\n\n        HealthIdTransaction memory tempHealthIdTras = HealthIdTransaction({\n            ownerType: _ownerType,\n            state: Stages.REGISTRATION_INITIATED\n        });\n        headlthIdtrans[address(newhealthSC)] = tempHealthIdTras;\n    }\n\n    function setState(\n        address _healthId,\n        Stages _state,\n        RegistrySC _registrySCAddr\n    ) public onlyRegulator(_registrySCAddr) {\n        headlthIdtrans[_healthId].state = _state;\n    }\n\n    function getState(address _healthId) external view returns (Stages) {\n        return headlthIdtrans[_healthId].state;\n    }\n\n    function getHealthId(\n        address _addr,\n        string memory _ownerType\n    ) external view returns (address) {\n        return isHealthIDExist[_addr][_ownerType];\n    }\n\n    function getHealthIdTrans(\n        address _healthId\n    ) external view returns (HealthIdTransaction memory) {\n        return headlthIdtrans[_healthId];\n    }\n}\n",
  "sourcePath": "/Users/prasenjitgupta/Desktop/Blockchain/HealthID-Truffle/contracts/HealthCareIDM.sol",
  "compiler": {
    "name": "solc",
    "version": "0.8.15+commit.e14f2714.Emscripten.clang"
  },
  "schemaVersion": "3.4.8",
  "updatedAt": "2023-06-08T13:29:14.559Z",
  "devdoc": {
    "kind": "dev",
    "methods": {},
    "version": 1
  },
  "userdoc": {
    "kind": "user",
    "methods": {},
    "version": 1
  }
}