{
  "contractName": "HealthSC",
  "abi": [
    {
      "inputs": [
        {
          "internalType": "address",
          "name": "_sender",
          "type": "address"
        }
      ],
      "stateMutability": "nonpayable",
      "type": "constructor"
    },
    {
      "anonymous": false,
      "inputs": [
        {
          "indexed": false,
          "internalType": "address",
          "name": "account",
          "type": "address"
        }
      ],
      "name": "Paused",
      "type": "event"
    },
    {
      "anonymous": false,
      "inputs": [
        {
          "indexed": false,
          "internalType": "address",
          "name": "account",
          "type": "address"
        }
      ],
      "name": "Unpaused",
      "type": "event"
    },
    {
      "inputs": [
        {
          "internalType": "address",
          "name": "",
          "type": "address"
        }
      ],
      "name": "addressExist",
      "outputs": [
        {
          "internalType": "bool",
          "name": "",
          "type": "bool"
        }
      ],
      "stateMutability": "view",
      "type": "function"
    },
    {
      "inputs": [],
      "name": "paused",
      "outputs": [
        {
          "internalType": "bool",
          "name": "",
          "type": "bool"
        }
      ],
      "stateMutability": "view",
      "type": "function"
    },
    {
      "inputs": [],
      "name": "get_public_key",
      "outputs": [
        {
          "internalType": "address",
          "name": "",
          "type": "address"
        }
      ],
      "stateMutability": "view",
      "type": "function"
    },
    {
      "inputs": [],
      "name": "get_timestamp",
      "outputs": [
        {
          "internalType": "uint256",
          "name": "",
          "type": "uint256"
        }
      ],
      "stateMutability": "view",
      "type": "function"
    },
    {
      "inputs": [
        {
          "internalType": "string",
          "name": "_hashId",
          "type": "string"
        }
      ],
      "name": "set_ipfsHash",
      "outputs": [],
      "stateMutability": "nonpayable",
      "type": "function"
    },
    {
      "inputs": [],
      "name": "get_ipfsHash",
      "outputs": [
        {
          "internalType": "string",
          "name": "",
          "type": "string"
        }
      ],
      "stateMutability": "view",
      "type": "function"
    },
    {
      "inputs": [],
      "name": "setpause",
      "outputs": [],
      "stateMutability": "nonpayable",
      "type": "function"
    },
    {
      "inputs": [],
      "name": "setUnpause",
      "outputs": [],
      "stateMutability": "nonpayable",
      "type": "function"
    },
    {
      "inputs": [],
      "name": "getPauseStatus",
      "outputs": [
        {
          "internalType": "bool",
          "name": "",
          "type": "bool"
        }
      ],
      "stateMutability": "view",
      "type": "function"
    },
    {
      "inputs": [
        {
          "internalType": "address",
          "name": "_addr",
          "type": "address"
        }
      ],
      "name": "grantAccess",
      "outputs": [],
      "stateMutability": "nonpayable",
      "type": "function"
    },
    {
      "inputs": [
        {
          "internalType": "address",
          "name": "_addr",
          "type": "address"
        }
      ],
      "name": "revokeAccess",
      "outputs": [],
      "stateMutability": "nonpayable",
      "type": "function"
    }
  ],
  "bytecode": "0x60806040523480156200001157600080fd5b50604051620015a0380380620015a083398181016040528101906200003791906200010a565b60008060006101000a81548160ff02191690831515021790555080600060016101000a81548173ffffffffffffffffffffffffffffffffffffffff021916908373ffffffffffffffffffffffffffffffffffffffff16021790555042600181905550506200013c565b600080fd5b600073ffffffffffffffffffffffffffffffffffffffff82169050919050565b6000620000d282620000a5565b9050919050565b620000e481620000c5565b8114620000f057600080fd5b50565b6000815190506200010481620000d9565b92915050565b600060208284031215620001235762000122620000a0565b5b60006200013384828501620000f3565b91505092915050565b611454806200014c6000396000f3fe608060405234801561001057600080fd5b50600436106100a95760003560e01c80635c975abb116100715780635c975abb146101405780635ee27ac21461015e578063848cb5c61461017c57806385e68531146101865780639f8a3922146101a2578063fb3f78f3146101be576100a9565b80630ae5e739146100ae578063148eacdd146100ca5780631d9023cb146100d45780632131e102146100f25780632212dbc314610122575b600080fd5b6100c860048036038101906100c39190610ae6565b6101dc565b005b6100d2610354565b005b6100dc6103ee565b6040516100e99190610b2e565b60405180910390f35b61010c60048036038101906101079190610ae6565b6103fd565b6040516101199190610b2e565b60405180910390f35b61012a61041d565b6040516101379190610b62565b60405180910390f35b610148610427565b6040516101559190610b2e565b60405180910390f35b61016661043d565b6040516101739190610b8c565b60405180910390f35b6101846104f7565b005b6101a0600480360381019061019b9190610ae6565b610591565b005b6101bc60048036038101906101b79190610ced565b610708565b005b6101c66107ef565b6040516101d39190610dbe565b60405180910390f35b600060019054906101000a900473ffffffffffffffffffffffffffffffffffffffff1673ffffffffffffffffffffffffffffffffffffffff163373ffffffffffffffffffffffffffffffffffffffff161461026c576040517f08c379a000000000000000000000000000000000000000000000000000000000815260040161026390610e2c565b60405180910390fd5b600360008273ffffffffffffffffffffffffffffffffffffffff1673ffffffffffffffffffffffffffffffffffffffff16815260200190815260200160002060009054906101000a900460ff16156102f9576040517f08c379a00000000000000000000000000000000000000000000000000000000081526004016102f090610e98565b60405180910390fd5b6001600360008373ffffffffffffffffffffffffffffffffffffffff1673ffffffffffffffffffffffffffffffffffffffff16815260200190815260200160002060006101000a81548160ff02191690831515021790555050565b600060019054906101000a900473ffffffffffffffffffffffffffffffffffffffff1673ffffffffffffffffffffffffffffffffffffffff163373ffffffffffffffffffffffffffffffffffffffff16146103e4576040517f08c379a00000000000000000000000000000000000000000000000000000000081526004016103db90610e2c565b60405180910390fd5b6103ec610915565b565b60006103f8610427565b905090565b60036020528060005260406000206000915054906101000a900460ff1681565b6000600154905090565b60008060009054906101000a900460ff16905090565b60008073ffffffffffffffffffffffffffffffffffffffff16600060019054906101000a900473ffffffffffffffffffffffffffffffffffffffff1673ffffffffffffffffffffffffffffffffffffffff16036104cf576040517f08c379a00000000000000000000000000000000000000000000000000000000081526004016104c690610f04565b60405180910390fd5b600060019054906101000a900473ffffffffffffffffffffffffffffffffffffffff16905090565b600060019054906101000a900473ffffffffffffffffffffffffffffffffffffffff1673ffffffffffffffffffffffffffffffffffffffff163373ffffffffffffffffffffffffffffffffffffffff1614610587576040517f08c379a000000000000000000000000000000000000000000000000000000000815260040161057e90610e2c565b60405180910390fd5b61058f610977565b565b600060019054906101000a900473ffffffffffffffffffffffffffffffffffffffff1673ffffffffffffffffffffffffffffffffffffffff163373ffffffffffffffffffffffffffffffffffffffff1614610621576040517f08c379a000000000000000000000000000000000000000000000000000000000815260040161061890610e2c565b60405180910390fd5b600360008273ffffffffffffffffffffffffffffffffffffffff1673ffffffffffffffffffffffffffffffffffffffff16815260200190815260200160002060009054906101000a900460ff166106ad576040517f08c379a00000000000000000000000000000000000000000000000000000000081526004016106a490610f70565b60405180910390fd5b6000600360008373ffffffffffffffffffffffffffffffffffffffff1673ffffffffffffffffffffffffffffffffffffffff16815260200190815260200160002060006101000a81548160ff02191690831515021790555050565b600060019054906101000a900473ffffffffffffffffffffffffffffffffffffffff1673ffffffffffffffffffffffffffffffffffffffff163373ffffffffffffffffffffffffffffffffffffffff1614610798576040517f08c379a000000000000000000000000000000000000000000000000000000000815260040161078f90610e2c565b60405180910390fd5b60008151036107dc576040517f08c379a00000000000000000000000000000000000000000000000000000000081526004016107d390610fdc565b60405180910390fd5b80600290816107eb9190611208565b5050565b60606107f96109d9565b600360003373ffffffffffffffffffffffffffffffffffffffff1673ffffffffffffffffffffffffffffffffffffffff16815260200190815260200160002060009054906101000a900460ff16610885576040517f08c379a000000000000000000000000000000000000000000000000000000000815260040161087c90611326565b60405180910390fd5b600280546108929061102b565b80601f01602080910402602001604051908101604052809291908181526020018280546108be9061102b565b801561090b5780601f106108e05761010080835404028352916020019161090b565b820191906000526020600020905b8154815290600101906020018083116108ee57829003601f168201915b5050505050905090565b61091d6109d9565b60016000806101000a81548160ff0219169083151502179055507f62e78cea01bee320cd4e420270b5ea74000d11b0c9f74754ebdbfc544b05a258610960610a23565b60405161096d9190610b8c565b60405180910390a1565b61097f610a2b565b60008060006101000a81548160ff0219169083151502179055507f5db9ee0a495bf2e6ff9c91a7834c1ba4fdd244a5e8aa4e537bd38aeae4b073aa6109c2610a23565b6040516109cf9190610b8c565b60405180910390a1565b6109e1610427565b15610a21576040517f08c379a0000000000000000000000000000000000000000000000000000000008152600401610a1890611392565b60405180910390fd5b565b600033905090565b610a33610427565b610a72576040517f08c379a0000000000000000000000000000000000000000000000000000000008152600401610a69906113fe565b60405180910390fd5b565b6000604051905090565b600080fd5b600080fd5b600073ffffffffffffffffffffffffffffffffffffffff82169050919050565b6000610ab382610a88565b9050919050565b610ac381610aa8565b8114610ace57600080fd5b50565b600081359050610ae081610aba565b92915050565b600060208284031215610afc57610afb610a7e565b5b6000610b0a84828501610ad1565b91505092915050565b60008115159050919050565b610b2881610b13565b82525050565b6000602082019050610b436000830184610b1f565b92915050565b6000819050919050565b610b5c81610b49565b82525050565b6000602082019050610b776000830184610b53565b92915050565b610b8681610aa8565b82525050565b6000602082019050610ba16000830184610b7d565b92915050565b600080fd5b600080fd5b6000601f19601f8301169050919050565b7f4e487b7100000000000000000000000000000000000000000000000000000000600052604160045260246000fd5b610bfa82610bb1565b810181811067ffffffffffffffff82111715610c1957610c18610bc2565b5b80604052505050565b6000610c2c610a74565b9050610c388282610bf1565b919050565b600067ffffffffffffffff821115610c5857610c57610bc2565b5b610c6182610bb1565b9050602081019050919050565b82818337600083830152505050565b6000610c90610c8b84610c3d565b610c22565b905082815260208101848484011115610cac57610cab610bac565b5b610cb7848285610c6e565b509392505050565b600082601f830112610cd457610cd3610ba7565b5b8135610ce4848260208601610c7d565b91505092915050565b600060208284031215610d0357610d02610a7e565b5b600082013567ffffffffffffffff811115610d2157610d20610a83565b5b610d2d84828501610cbf565b91505092915050565b600081519050919050565b600082825260208201905092915050565b60005b83811015610d70578082015181840152602081019050610d55565b83811115610d7f576000848401525b50505050565b6000610d9082610d36565b610d9a8185610d41565b9350610daa818560208601610d52565b610db381610bb1565b840191505092915050565b60006020820190508181036000830152610dd88184610d85565b905092915050565b7f594f5520415245204e4f54204f574e4552000000000000000000000000000000600082015250565b6000610e16601183610d41565b9150610e2182610de0565b602082019050919050565b60006020820190508181036000830152610e4581610e09565b9050919050565b7f41636365737320616c7265616479206772616e74656400000000000000000000600082015250565b6000610e82601683610d41565b9150610e8d82610e4c565b602082019050919050565b60006020820190508181036000830152610eb181610e75565b9050919050565b7f4f776e6572206973206e6f742073657400000000000000000000000000000000600082015250565b6000610eee601083610d41565b9150610ef982610eb8565b602082019050919050565b60006020820190508181036000830152610f1d81610ee1565b9050919050565b7f41636365737320616c7265616479207265766f6b656400000000000000000000600082015250565b6000610f5a601683610d41565b9150610f6582610f24565b602082019050919050565b60006020820190508181036000830152610f8981610f4d565b9050919050565b7f4861736849642073686f756c64206e6f74206265206e756c6c00000000000000600082015250565b6000610fc6601983610d41565b9150610fd182610f90565b602082019050919050565b60006020820190508181036000830152610ff581610fb9565b9050919050565b7f4e487b7100000000000000000000000000000000000000000000000000000000600052602260045260246000fd5b6000600282049050600182168061104357607f821691505b60208210810361105657611055610ffc565b5b50919050565b60008190508160005260206000209050919050565b60006020601f8301049050919050565b600082821b905092915050565b6000600883026110be7fffffffffffffffffffffffffffffffffffffffffffffffffffffffffffffffff82611081565b6110c88683611081565b95508019841693508086168417925050509392505050565b6000819050919050565b60006111056111006110fb84610b49565b6110e0565b610b49565b9050919050565b6000819050919050565b61111f836110ea565b61113361112b8261110c565b84845461108e565b825550505050565b600090565b61114861113b565b611153818484611116565b505050565b5b818110156111775761116c600082611140565b600181019050611159565b5050565b601f8211156111bc5761118d8161105c565b61119684611071565b810160208510156111a5578190505b6111b96111b185611071565b830182611158565b50505b505050565b600082821c905092915050565b60006111df600019846008026111c1565b1980831691505092915050565b60006111f883836111ce565b9150826002028217905092915050565b61121182610d36565b67ffffffffffffffff81111561122a57611229610bc2565b5b611234825461102b565b61123f82828561117b565b600060209050601f8311600181146112725760008415611260578287015190505b61126a85826111ec565b8655506112d2565b601f1984166112808661105c565b60005b828110156112a857848901518255600182019150602085019450602081019050611283565b868310156112c557848901516112c1601f8916826111ce565b8355505b6001600288020188555050505b505050505050565b7f594f5520415245204e4f5420414c4c4f57454400000000000000000000000000600082015250565b6000611310601383610d41565b915061131b826112da565b602082019050919050565b6000602082019050818103600083015261133f81611303565b9050919050565b7f5061757361626c653a2070617573656400000000000000000000000000000000600082015250565b600061137c601083610d41565b915061138782611346565b602082019050919050565b600060208201905081810360008301526113ab8161136f565b9050919050565b7f5061757361626c653a206e6f7420706175736564000000000000000000000000600082015250565b60006113e8601483610d41565b91506113f3826113b2565b602082019050919050565b60006020820190508181036000830152611417816113db565b905091905056fea26469706673582212208e6eabed227aad1227d2a6edad2a7a848f256c67db2089f8e7860b7dd5cf4c9c64736f6c634300080f0033",
  "immutableReferences": {},
  "source": "// SPDX-License-Identifier: MIT\npragma solidity >=0.4.22 <0.9.0;\nimport \"./RegistrySC.sol\";\nimport \"@openzeppelin/contracts/security/Pausable.sol\";\n\ncontract HealthSC is Pausable {\n    address private owner;\n    uint256 timeStamp;\n    string private ipfsHash;\n\n    mapping(address => bool) public addressExist;\n\n    modifier onlyOwner() {\n        require(msg.sender == owner, \"YOU ARE NOT OWNER\");\n        _;\n    }\n\n    modifier isAllowed() {\n        require(addressExist[msg.sender], \"YOU ARE NOT ALLOWED\");\n        _;\n    }\n\n    constructor(address _sender) {\n        owner = _sender;\n        timeStamp = block.timestamp;\n    }\n\n    function get_public_key() external view returns (address) {\n        require(owner != address(0), \"Owner is not set\");\n        return owner;\n    }\n\n    function get_timestamp() external view returns (uint) {\n        return timeStamp;\n    }\n\n    function set_ipfsHash(string memory _hashId) external onlyOwner {\n        require(bytes(_hashId).length != 0, \"HashId should not be null\");\n        ipfsHash = _hashId;\n    }\n\n    function get_ipfsHash()\n        external\n        view\n        whenNotPaused\n        isAllowed\n        returns (string memory)\n    {\n        return ipfsHash;\n    }\n\n    function setpause() external onlyOwner {\n        super._pause();\n    }\n\n    function setUnpause() external onlyOwner {\n        super._unpause();\n    }\n\n    function getPauseStatus() external view returns (bool) {\n        return super.paused();\n    }\n\n    function grantAccess(address _addr) external onlyOwner {\n        require(!addressExist[_addr], \"Access already granted\");\n        addressExist[_addr] = true;\n    }\n\n    function revokeAccess(address _addr) external onlyOwner {\n        require(addressExist[_addr], \"Access already revoked\");\n        addressExist[_addr] = false;\n    }\n}\n",
  "sourcePath": "/Users/prasenjitgupta/Desktop/Blockchain/HealthID-Truffle/contracts/HealthSC.sol",
  "compiler": {
    "name": "solc",
    "version": "0.8.15+commit.e14f2714.Emscripten.clang"
  },
  "schemaVersion": "3.4.8",
  "updatedAt": "2023-06-08T13:29:14.563Z",
  "devdoc": {
    "kind": "dev",
    "methods": {
      "paused()": {
        "details": "Returns true if the contract is paused, and false otherwise."
      }
    },
    "version": 1
  },
  "userdoc": {
    "kind": "user",
    "methods": {},
    "version": 1
  }
}