{
  "contractName": "RegistrySC",
  "abi": [
    {
      "inputs": [
        {
          "internalType": "address[]",
          "name": "_regulators",
          "type": "address[]"
        },
        {
          "internalType": "uint256",
          "name": "_approvalCount",
          "type": "uint256"
        }
      ],
      "stateMutability": "nonpayable",
      "type": "constructor"
    },
    {
      "inputs": [],
      "name": "_registrationIds",
      "outputs": [
        {
          "internalType": "uint256",
          "name": "_value",
          "type": "uint256"
        }
      ],
      "stateMutability": "view",
      "type": "function"
    },
    {
      "inputs": [
        {
          "internalType": "uint256",
          "name": "",
          "type": "uint256"
        }
      ],
      "name": "newRegistration",
      "outputs": [
        {
          "internalType": "uint256",
          "name": "approvalCount",
          "type": "uint256"
        },
        {
          "internalType": "uint256",
          "name": "rejectedCount",
          "type": "uint256"
        },
        {
          "internalType": "bool",
          "name": "votingInProgress",
          "type": "bool"
        },
        {
          "internalType": "address",
          "name": "requestor",
          "type": "address"
        },
        {
          "internalType": "enum RegistrySC.ApprovalStatus",
          "name": "_status",
          "type": "uint8"
        }
      ],
      "stateMutability": "view",
      "type": "function"
    },
    {
      "inputs": [
        {
          "internalType": "address",
          "name": "",
          "type": "address"
        }
      ],
      "name": "resgistrationPerAddr",
      "outputs": [
        {
          "internalType": "uint256",
          "name": "",
          "type": "uint256"
        }
      ],
      "stateMutability": "view",
      "type": "function"
    },
    {
      "inputs": [],
      "name": "register_regulator",
      "outputs": [],
      "stateMutability": "nonpayable",
      "type": "function"
    },
    {
      "inputs": [
        {
          "internalType": "uint256",
          "name": "_requestId",
          "type": "uint256"
        },
        {
          "internalType": "enum RegistrySC.ApprovalStatus",
          "name": "_status",
          "type": "uint8"
        }
      ],
      "name": "vote",
      "outputs": [],
      "stateMutability": "nonpayable",
      "type": "function"
    },
    {
      "inputs": [
        {
          "internalType": "uint256",
          "name": "_requestId",
          "type": "uint256"
        }
      ],
      "name": "claimToBecomeRegulator",
      "outputs": [],
      "stateMutability": "nonpayable",
      "type": "function"
    },
    {
      "inputs": [],
      "name": "getTotalRegulator",
      "outputs": [
        {
          "internalType": "uint256",
          "name": "",
          "type": "uint256"
        }
      ],
      "stateMutability": "view",
      "type": "function"
    },
    {
      "inputs": [
        {
          "internalType": "uint256",
          "name": "_requestId",
          "type": "uint256"
        }
      ],
      "name": "checkRegistration",
      "outputs": [
        {
          "components": [
            {
              "internalType": "uint256",
              "name": "approvalCount",
              "type": "uint256"
            },
            {
              "internalType": "uint256",
              "name": "rejectedCount",
              "type": "uint256"
            },
            {
              "internalType": "bool",
              "name": "votingInProgress",
              "type": "bool"
            },
            {
              "internalType": "address",
              "name": "requestor",
              "type": "address"
            },
            {
              "internalType": "enum RegistrySC.ApprovalStatus",
              "name": "_status",
              "type": "uint8"
            }
          ],
          "internalType": "struct RegistrySC.RegisterRegulator",
          "name": "",
          "type": "tuple"
        }
      ],
      "stateMutability": "view",
      "type": "function"
    },
    {
      "inputs": [
        {
          "internalType": "address",
          "name": "_nominatedRegulator",
          "type": "address"
        }
      ],
      "name": "getRegistrationId",
      "outputs": [
        {
          "internalType": "uint256",
          "name": "",
          "type": "uint256"
        }
      ],
      "stateMutability": "view",
      "type": "function"
    },
    {
      "inputs": [
        {
          "internalType": "address",
          "name": "_regulatorAddress",
          "type": "address"
        }
      ],
      "name": "verify_regulator",
      "outputs": [
        {
          "internalType": "bool",
          "name": "",
          "type": "bool"
        }
      ],
      "stateMutability": "view",
      "type": "function"
    },
    {
      "inputs": [
        {
          "internalType": "address",
          "name": "_healthID",
          "type": "address"
        },
        {
          "internalType": "address",
          "name": "_ownerPublicKey",
          "type": "address"
        }
      ],
      "name": "register_attestation",
      "outputs": [],
      "stateMutability": "nonpayable",
      "type": "function"
    },
    {
      "inputs": [
        {
          "internalType": "address",
          "name": "_healthID",
          "type": "address"
        }
      ],
      "name": "verify_attestation",
      "outputs": [
        {
          "internalType": "address",
          "name": "",
          "type": "address"
        }
      ],
      "stateMutability": "view",
      "type": "function"
    },
    {
      "inputs": [
        {
          "internalType": "address",
          "name": "_healthID",
          "type": "address"
        }
      ],
      "name": "revoke_attestation",
      "outputs": [],
      "stateMutability": "nonpayable",
      "type": "function"
    },
    {
      "inputs": [
        {
          "internalType": "address",
          "name": "_healthID",
          "type": "address"
        }
      ],
      "name": "getRegulator",
      "outputs": [
        {
          "internalType": "address",
          "name": "",
          "type": "address"
        }
      ],
      "stateMutability": "view",
      "type": "function"
    }
  ],
  "bytecode": "0x60806040523480156200001157600080fd5b506040516200246438038062002464833981810160405281019062000037919062000328565b60005b82518160ff161015620000ef57600160066000858460ff16815181106200006657620000656200038e565b5b602002602001015173ffffffffffffffffffffffffffffffffffffffff1673ffffffffffffffffffffffffffffffffffffffff16815260200190815260200160002060006101000a81548160ff02191690831515021790555060026000815480929190620000d490620003ec565b91905055508080620000e69062000446565b9150506200003a565b5080600181905550505062000474565b6000604051905090565b600080fd5b600080fd5b600080fd5b6000601f19601f8301169050919050565b7f4e487b7100000000000000000000000000000000000000000000000000000000600052604160045260246000fd5b620001638262000118565b810181811067ffffffffffffffff8211171562000185576200018462000129565b5b80604052505050565b60006200019a620000ff565b9050620001a8828262000158565b919050565b600067ffffffffffffffff821115620001cb57620001ca62000129565b5b602082029050602081019050919050565b600080fd5b600073ffffffffffffffffffffffffffffffffffffffff82169050919050565b60006200020e82620001e1565b9050919050565b620002208162000201565b81146200022c57600080fd5b50565b600081519050620002408162000215565b92915050565b60006200025d6200025784620001ad565b6200018e565b90508083825260208201905060208402830185811115620002835762000282620001dc565b5b835b81811015620002b057806200029b88826200022f565b84526020840193505060208101905062000285565b5050509392505050565b600082601f830112620002d257620002d162000113565b5b8151620002e484826020860162000246565b91505092915050565b6000819050919050565b6200030281620002ed565b81146200030e57600080fd5b50565b6000815190506200032281620002f7565b92915050565b6000806040838503121562000342576200034162000109565b5b600083015167ffffffffffffffff8111156200036357620003626200010e565b5b6200037185828601620002ba565b9250506020620003848582860162000311565b9150509250929050565b7f4e487b7100000000000000000000000000000000000000000000000000000000600052603260045260246000fd5b7f4e487b7100000000000000000000000000000000000000000000000000000000600052601160045260246000fd5b6000620003f982620002ed565b91507fffffffffffffffffffffffffffffffffffffffffffffffffffffffffffffffff82036200042e576200042d620003bd565b5b600182019050919050565b600060ff82169050919050565b6000620004538262000439565b915060ff8203620004695762000468620003bd565b5b600182019050919050565b611fe080620004846000396000f3fe608060405234801561001057600080fd5b50600436106100ea5760003560e01c8063a98709641161008c578063d773a74111610066578063d773a74114610273578063d860f2a6146102a3578063e34f5917146102bf578063f32b4a6a146102dd576100ea565b8063a9870964146101f7578063acdf8b4614610227578063b166477f14610243576100ea565b806343f9ff94116100c857806343f9ff9414610147578063717657ef14610177578063943e8216146101ab57806397a67ed9146101c7576100ea565b806309f63a61146100ef57806320d64e8a1461010d5780632851d21e1461013d575b600080fd5b6100f76102f9565b6040516101049190611702565b60405180910390f35b61012760048036038101906101229190611780565b610303565b6040516101349190611702565b60405180910390f35b61014561031b565b005b610161600480360381019061015c9190611780565b6105ce565b60405161016e91906117bc565b60405180910390f35b610191600480360381019061018c9190611803565b610704565b6040516101a29594939291906118c2565b60405180910390f35b6101c560048036038101906101c0919061193a565b610774565b005b6101e160048036038101906101dc9190611803565b610af5565b6040516101ee9190611a1e565b60405180910390f35b610211600480360381019061020c9190611780565b610be2565b60405161021e91906117bc565b60405180910390f35b610241600480360381019061023c9190611803565b610d18565b005b61025d60048036038101906102589190611780565b6111a8565b60405161026a9190611a39565b60405180910390f35b61028d60048036038101906102889190611780565b6111fe565b60405161029a9190611702565b60405180910390f35b6102bd60048036038101906102b89190611a54565b611247565b005b6102c76114a1565b6040516102d49190611702565b60405180910390f35b6102f760048036038101906102f29190611780565b6114ad565b005b6000600254905090565b60046020528060005260406000206000915090505481565b600660003373ffffffffffffffffffffffffffffffffffffffff1673ffffffffffffffffffffffffffffffffffffffff16815260200190815260200160002060009054906101000a900460ff16156103a8576040517f08c379a000000000000000000000000000000000000000000000000000000000815260040161039f90611af1565b60405180910390fd5b6000600460003373ffffffffffffffffffffffffffffffffffffffff1673ffffffffffffffffffffffffffffffffffffffff1681526020019081526020016000205490506003600082815260200190815260200160002060020160009054906101000a900460ff1615610450576040517f08c379a000000000000000000000000000000000000000000000000000000000815260040161044790611b5d565b60405180910390fd5b60006040518060a0016040528060008152602001600081526020016001151581526020013373ffffffffffffffffffffffffffffffffffffffff1681526020016002808111156104a3576104a261184b565b5b81525090506104b2600061166c565b80600360006104c16000611682565b8152602001908152602001600020600082015181600001556020820151816001015560408201518160020160006101000a81548160ff02191690831515021790555060608201518160020160016101000a81548173ffffffffffffffffffffffffffffffffffffffff021916908373ffffffffffffffffffffffffffffffffffffffff16021790555060808201518160020160156101000a81548160ff021916908360028111156105755761057461184b565b5b02179055509050506105876000611682565b600460003373ffffffffffffffffffffffffffffffffffffffff1673ffffffffffffffffffffffffffffffffffffffff168152602001908152602001600020819055505050565b60008073ffffffffffffffffffffffffffffffffffffffff16600860008473ffffffffffffffffffffffffffffffffffffffff1673ffffffffffffffffffffffffffffffffffffffff16815260200190815260200160002060009054906101000a900473ffffffffffffffffffffffffffffffffffffffff1673ffffffffffffffffffffffffffffffffffffffff160361069d576040517f08c379a000000000000000000000000000000000000000000000000000000000815260040161069490611bc9565b60405180910390fd5b600860008373ffffffffffffffffffffffffffffffffffffffff1673ffffffffffffffffffffffffffffffffffffffff16815260200190815260200160002060009054906101000a900473ffffffffffffffffffffffffffffffffffffffff169050919050565b60036020528060005260406000206000915090508060000154908060010154908060020160009054906101000a900460ff16908060020160019054906101000a900473ffffffffffffffffffffffffffffffffffffffff16908060020160159054906101000a900460ff16905085565b600660003373ffffffffffffffffffffffffffffffffffffffff1673ffffffffffffffffffffffffffffffffffffffff16815260200190815260200160002060009054906101000a900460ff16610800576040517f08c379a00000000000000000000000000000000000000000000000000000000081526004016107f790611c35565b60405180910390fd5b60008211801561081957506108156000611682565b8211155b610858576040517f08c379a000000000000000000000000000000000000000000000000000000000815260040161084f90611ca1565b60405180910390fd5b600660006003600085815260200190815260200160002060020160019054906101000a900473ffffffffffffffffffffffffffffffffffffffff1673ffffffffffffffffffffffffffffffffffffffff1673ffffffffffffffffffffffffffffffffffffffff16815260200190815260200160002060009054906101000a900460ff161561091b576040517f08c379a000000000000000000000000000000000000000000000000000000000815260040161091290611af1565b60405180910390fd5b6005600083815260200190815260200160002060003373ffffffffffffffffffffffffffffffffffffffff1673ffffffffffffffffffffffffffffffffffffffff16815260200190815260200160002060009054906101000a900460ff16156109b9576040517f08c379a00000000000000000000000000000000000000000000000000000000081526004016109b090611d0d565b60405180910390fd5b60006003600084815260200190815260200160002090508060020160009054906101000a900460ff16610a21576040517f08c379a0000000000000000000000000000000000000000000000000000000008152600401610a1890611d79565b60405180910390fd5b60006002811115610a3557610a3461184b565b5b826002811115610a4857610a4761184b565b5b03610a6c57806000016000815480929190610a6290611dc8565b9190505550610a87565b806001016000815480929190610a8190611dc8565b91905055505b60016005600085815260200190815260200160002060003373ffffffffffffffffffffffffffffffffffffffff1673ffffffffffffffffffffffffffffffffffffffff16815260200190815260200160002060006101000a81548160ff021916908315150217905550505050565b610afd611690565b600360008381526020019081526020016000206040518060a001604052908160008201548152602001600182015481526020016002820160009054906101000a900460ff161515151581526020016002820160019054906101000a900473ffffffffffffffffffffffffffffffffffffffff1673ffffffffffffffffffffffffffffffffffffffff1673ffffffffffffffffffffffffffffffffffffffff1681526020016002820160159054906101000a900460ff166002811115610bc557610bc461184b565b5b6002811115610bd757610bd661184b565b5b815250509050919050565b60008073ffffffffffffffffffffffffffffffffffffffff16600760008473ffffffffffffffffffffffffffffffffffffffff1673ffffffffffffffffffffffffffffffffffffffff16815260200190815260200160002060009054906101000a900473ffffffffffffffffffffffffffffffffffffffff1673ffffffffffffffffffffffffffffffffffffffff1603610cb1576040517f08c379a0000000000000000000000000000000000000000000000000000000008152600401610ca890611bc9565b60405180910390fd5b600760008373ffffffffffffffffffffffffffffffffffffffff1673ffffffffffffffffffffffffffffffffffffffff16815260200190815260200160002060009054906101000a900473ffffffffffffffffffffffffffffffffffffffff169050919050565b803373ffffffffffffffffffffffffffffffffffffffff166003600083815260200190815260200160002060020160019054906101000a900473ffffffffffffffffffffffffffffffffffffffff1673ffffffffffffffffffffffffffffffffffffffff1614610dbd576040517f08c379a0000000000000000000000000000000000000000000000000000000008152600401610db490611e5c565b60405180910390fd5b600082118015610dd65750610dd26000611682565b8211155b610e15576040517f08c379a0000000000000000000000000000000000000000000000000000000008152600401610e0c90611ca1565b60405180910390fd5b600660006003600085815260200190815260200160002060020160019054906101000a900473ffffffffffffffffffffffffffffffffffffffff1673ffffffffffffffffffffffffffffffffffffffff1673ffffffffffffffffffffffffffffffffffffffff16815260200190815260200160002060009054906101000a900460ff1615610ed8576040517f08c379a0000000000000000000000000000000000000000000000000000000008152600401610ecf90611af1565b60405180910390fd5b60006003600084815260200190815260200160002090508060020160009054906101000a900460ff16610f40576040517f08c379a0000000000000000000000000000000000000000000000000000000008152600401610f3790611d79565b60405180910390fd5b60025481600101548260000154610f579190611e7c565b14610f97576040517f08c379a0000000000000000000000000000000000000000000000000000000008152600401610f8e90611f1e565b60405180910390fd5b8060010154816000015411156110f1576001600660008360020160019054906101000a900473ffffffffffffffffffffffffffffffffffffffff1673ffffffffffffffffffffffffffffffffffffffff1673ffffffffffffffffffffffffffffffffffffffff16815260200190815260200160002060006101000a81548160ff02191690831515021790555060008160020160156101000a81548160ff0219169083600281111561104b5761104a61184b565b5b021790555060008160020160006101000a81548160ff021916908315150217905550600460008260020160019054906101000a900473ffffffffffffffffffffffffffffffffffffffff1673ffffffffffffffffffffffffffffffffffffffff1673ffffffffffffffffffffffffffffffffffffffff16815260200190815260200160002060009055600260008154809291906110e790611dc8565b91905055506111a3565b60008160020160006101000a81548160ff02191690831515021790555060018160020160156101000a81548160ff021916908360028111156111365761113561184b565b5b0217905550600460008260020160019054906101000a900473ffffffffffffffffffffffffffffffffffffffff1673ffffffffffffffffffffffffffffffffffffffff1673ffffffffffffffffffffffffffffffffffffffff168152602001908152602001600020600090555b505050565b6000600660008373ffffffffffffffffffffffffffffffffffffffff1673ffffffffffffffffffffffffffffffffffffffff16815260200190815260200160002060009054906101000a900460ff169050919050565b6000600460008373ffffffffffffffffffffffffffffffffffffffff1673ffffffffffffffffffffffffffffffffffffffff168152602001908152602001600020549050919050565b600660003373ffffffffffffffffffffffffffffffffffffffff1673ffffffffffffffffffffffffffffffffffffffff16815260200190815260200160002060009054906101000a900460ff166112d3576040517f08c379a00000000000000000000000000000000000000000000000000000000081526004016112ca90611c35565b60405180910390fd5b600073ffffffffffffffffffffffffffffffffffffffff16600860008473ffffffffffffffffffffffffffffffffffffffff1673ffffffffffffffffffffffffffffffffffffffff16815260200190815260200160002060009054906101000a900473ffffffffffffffffffffffffffffffffffffffff1673ffffffffffffffffffffffffffffffffffffffff16146113a1576040517f08c379a000000000000000000000000000000000000000000000000000000000815260040161139890611f8a565b60405180910390fd5b80600860008473ffffffffffffffffffffffffffffffffffffffff1673ffffffffffffffffffffffffffffffffffffffff16815260200190815260200160002060006101000a81548173ffffffffffffffffffffffffffffffffffffffff021916908373ffffffffffffffffffffffffffffffffffffffff16021790555033600760008473ffffffffffffffffffffffffffffffffffffffff1673ffffffffffffffffffffffffffffffffffffffff16815260200190815260200160002060006101000a81548173ffffffffffffffffffffffffffffffffffffffff021916908373ffffffffffffffffffffffffffffffffffffffff1602179055505050565b60008060000154905081565b600660003373ffffffffffffffffffffffffffffffffffffffff1673ffffffffffffffffffffffffffffffffffffffff16815260200190815260200160002060009054906101000a900460ff16611539576040517f08c379a000000000000000000000000000000000000000000000000000000000815260040161153090611c35565b60405180910390fd5b600073ffffffffffffffffffffffffffffffffffffffff16600860008373ffffffffffffffffffffffffffffffffffffffff1673ffffffffffffffffffffffffffffffffffffffff16815260200190815260200160002060009054906101000a900473ffffffffffffffffffffffffffffffffffffffff1673ffffffffffffffffffffffffffffffffffffffff1603611607576040517f08c379a00000000000000000000000000000000000000000000000000000000081526004016115fe90611bc9565b60405180910390fd5b600860008273ffffffffffffffffffffffffffffffffffffffff1673ffffffffffffffffffffffffffffffffffffffff16815260200190815260200160002060006101000a81549073ffffffffffffffffffffffffffffffffffffffff021916905550565b6001816000016000828254019250508190555050565b600081600001549050919050565b6040518060a001604052806000815260200160008152602001600015158152602001600073ffffffffffffffffffffffffffffffffffffffff168152602001600060028111156116e3576116e261184b565b5b81525090565b6000819050919050565b6116fc816116e9565b82525050565b600060208201905061171760008301846116f3565b92915050565b600080fd5b600073ffffffffffffffffffffffffffffffffffffffff82169050919050565b600061174d82611722565b9050919050565b61175d81611742565b811461176857600080fd5b50565b60008135905061177a81611754565b92915050565b6000602082840312156117965761179561171d565b5b60006117a48482850161176b565b91505092915050565b6117b681611742565b82525050565b60006020820190506117d160008301846117ad565b92915050565b6117e0816116e9565b81146117eb57600080fd5b50565b6000813590506117fd816117d7565b92915050565b6000602082840312156118195761181861171d565b5b6000611827848285016117ee565b91505092915050565b60008115159050919050565b61184581611830565b82525050565b7f4e487b7100000000000000000000000000000000000000000000000000000000600052602160045260246000fd5b6003811061188b5761188a61184b565b5b50565b600081905061189c8261187a565b919050565b60006118ac8261188e565b9050919050565b6118bc816118a1565b82525050565b600060a0820190506118d760008301886116f3565b6118e460208301876116f3565b6118f1604083018661183c565b6118fe60608301856117ad565b61190b60808301846118b3565b9695505050505050565b6003811061192257600080fd5b50565b60008135905061193481611915565b92915050565b600080604083850312156119515761195061171d565b5b600061195f858286016117ee565b925050602061197085828601611925565b9150509250929050565b611983816116e9565b82525050565b61199281611830565b82525050565b6119a181611742565b82525050565b6119b0816118a1565b82525050565b60a0820160008201516119cc600085018261197a565b5060208201516119df602085018261197a565b5060408201516119f26040850182611989565b506060820151611a056060850182611998565b506080820151611a1860808501826119a7565b50505050565b600060a082019050611a3360008301846119b6565b92915050565b6000602082019050611a4e600083018461183c565b92915050565b60008060408385031215611a6b57611a6a61171d565b5b6000611a798582860161176b565b9250506020611a8a8582860161176b565b9150509250929050565b600082825260208201905092915050565b7f416c7265616479206120726567756c61746f7200000000000000000000000000600082015250565b6000611adb601383611a94565b9150611ae682611aa5565b602082019050919050565b60006020820190508181036000830152611b0a81611ace565b9050919050565b7f416c7265616479204170706c69656420666f7220526567697374726174696f6e600082015250565b6000611b47602083611a94565b9150611b5282611b11565b602082019050919050565b60006020820190508181036000830152611b7681611b3a565b9050919050565b7f4865616c7468204944206973206e6f742070726573656e740000000000000000600082015250565b6000611bb3601883611a94565b9150611bbe82611b7d565b602082019050919050565b60006020820190508181036000830152611be281611ba6565b9050919050565b7f596f7520617265206e6f7420726567756c61746f720000000000000000000000600082015250565b6000611c1f601583611a94565b9150611c2a82611be9565b602082019050919050565b60006020820190508181036000830152611c4e81611c12565b9050919050565b7f496e76616c696420526567697374726174696f6e204964000000000000000000600082015250565b6000611c8b601783611a94565b9150611c9682611c55565b602082019050919050565b60006020820190508181036000830152611cba81611c7e565b9050919050565b7f416c726561647920566f74656400000000000000000000000000000000000000600082015250565b6000611cf7600d83611a94565b9150611d0282611cc1565b602082019050919050565b60006020820190508181036000830152611d2681611cea565b9050919050565b7f566f74696e6720436f6d706c6574656400000000000000000000000000000000600082015250565b6000611d63601083611a94565b9150611d6e82611d2d565b602082019050919050565b60006020820190508181036000830152611d9281611d56565b9050919050565b7f4e487b7100000000000000000000000000000000000000000000000000000000600052601160045260246000fd5b6000611dd3826116e9565b91507fffffffffffffffffffffffffffffffffffffffffffffffffffffffffffffffff8203611e0557611e04611d99565b5b600182019050919050565b7f596f7520617265206e6f7420616c6c6f77656400000000000000000000000000600082015250565b6000611e46601383611a94565b9150611e5182611e10565b602082019050919050565b60006020820190508181036000830152611e7581611e39565b9050919050565b6000611e87826116e9565b9150611e92836116e9565b9250827fffffffffffffffffffffffffffffffffffffffffffffffffffffffffffffffff03821115611ec757611ec6611d99565b5b828201905092915050565b7f566f74696e672059657420746f20636f6d706c65746500000000000000000000600082015250565b6000611f08601683611a94565b9150611f1382611ed2565b602082019050919050565b60006020820190508181036000830152611f3781611efb565b9050919050565b7f4865616c746820494420616c7265616479204174746573746564000000000000600082015250565b6000611f74601a83611a94565b9150611f7f82611f3e565b602082019050919050565b60006020820190508181036000830152611fa381611f67565b905091905056fea2646970667358221220e4a76693e91ce9c6fd8ef61fe02602fab20ca3ae19041793a6f3f7a3bdb44c6864736f6c634300080f0033",
  "immutableReferences": {},
  "source": "// SPDX-License-Identifier: MIT\npragma solidity >=0.4.22 <0.9.0;\n\nimport \"@openzeppelin/contracts/utils/Counters.sol\";\n\ncontract RegistrySC {\n    using Counters for Counters.Counter;\n    Counters.Counter public _registrationIds;\n    enum ApprovalStatus {\n        APPROVED,\n        REJECTED,\n        NOT_KNOWN\n    }\n\n    struct RegisterRegulator {\n        uint256 approvalCount;\n        uint256 rejectedCount;\n        bool votingInProgress;\n        address requestor;\n        ApprovalStatus _status;\n    }\n\n    uint256 approvalCount;\n    uint256 totalRegulator;\n\n    //Address of Sender who want to become regulator => Structure Instance\n    mapping(uint256 => RegisterRegulator) public newRegistration;\n    mapping(address => uint256) public resgistrationPerAddr;\n\n    //Address of person who want to become regulator => Address of Registered Regulator => bool\n    mapping(uint256 => mapping(address => bool)) polled;\n\n    //HealthRegulator Ethereum address -> Bool(Yes/NO)\n    mapping(address => bool) isHealthRegulator;\n\n    //HealthId(Contract address) -> HealthRegulator Ethereum address\n    mapping(address => address) whoAttested;\n\n    //HealthId(Contract address)  -> User/Health Provider Public Key\n    mapping(address => address) attestedHealthId;\n\n    modifier onlyRegulator() {\n        require(isHealthRegulator[msg.sender], \"You are not regulator\");\n        _;\n    }\n\n    modifier onlyRegulatorRequestor(uint256 _requestId) {\n        require(\n            newRegistration[_requestId].requestor == msg.sender,\n            \"You are not allowed\"\n        );\n        _;\n    }\n\n    constructor(address[] memory _regulators, uint256 _approvalCount) {\n        for (uint8 i = 0; i < _regulators.length; i++) {\n            isHealthRegulator[_regulators[i]] = true;\n            totalRegulator++;\n        }\n        approvalCount = _approvalCount;\n    }\n\n    function register_regulator() external {\n        require(!isHealthRegulator[msg.sender], \"Already a regulator\");\n        uint256 _requestId = resgistrationPerAddr[msg.sender];\n        require(\n            !newRegistration[_requestId].votingInProgress,\n            \"Already Applied for Registration\"\n        );\n        RegisterRegulator memory newInstance = RegisterRegulator({\n            approvalCount: 0,\n            rejectedCount: 0,\n            votingInProgress: true,\n            requestor: msg.sender,\n            _status: ApprovalStatus.NOT_KNOWN\n        });\n        _registrationIds.increment();\n        newRegistration[_registrationIds.current()] = newInstance;\n        resgistrationPerAddr[msg.sender] = _registrationIds.current();\n    }\n\n    function vote(\n        uint256 _requestId,\n        ApprovalStatus _status\n    ) external onlyRegulator {\n        require(\n            (_requestId > 0) && (_requestId <= _registrationIds.current()),\n            \"Invalid Registration Id\"\n        );\n        require(\n            !isHealthRegulator[newRegistration[_requestId].requestor],\n            \"Already a regulator\"\n        );\n        require(!polled[_requestId][msg.sender], \"Already Voted\");\n        RegisterRegulator storage tempInstance = newRegistration[_requestId];\n        require(tempInstance.votingInProgress, \"Voting Completed\");\n        if (_status == ApprovalStatus.APPROVED) {\n            tempInstance.approvalCount++;\n        } else {\n            tempInstance.rejectedCount++;\n        }\n        polled[_requestId][msg.sender] = true;\n    }\n\n    function claimToBecomeRegulator(\n        uint256 _requestId\n    ) external onlyRegulatorRequestor(_requestId) {\n        require(\n            (_requestId > 0) && (_requestId <= _registrationIds.current()),\n            \"Invalid Registration Id\"\n        );\n        require(\n            !isHealthRegulator[newRegistration[_requestId].requestor],\n            \"Already a regulator\"\n        );\n        RegisterRegulator storage tempInstance = newRegistration[_requestId];\n        require(tempInstance.votingInProgress, \"Voting Completed\");\n        require(\n            (tempInstance.approvalCount) + (tempInstance.rejectedCount) ==\n                totalRegulator,\n            \"Voting Yet to complete\"\n        );\n\n        if (tempInstance.approvalCount > tempInstance.rejectedCount) {\n            isHealthRegulator[tempInstance.requestor] = true;\n            tempInstance._status = ApprovalStatus.APPROVED;\n            tempInstance.votingInProgress = false;\n            delete resgistrationPerAddr[tempInstance.requestor];\n            totalRegulator++;\n        } else {\n            tempInstance.votingInProgress = false;\n            tempInstance._status = ApprovalStatus.REJECTED;\n            delete resgistrationPerAddr[tempInstance.requestor];\n        }\n    }\n\n    function getTotalRegulator() external view returns (uint) {\n        return totalRegulator;\n    }\n\n    function checkRegistration(\n        uint256 _requestId\n    ) external view returns (RegisterRegulator memory) {\n        return newRegistration[_requestId];\n    }\n\n    function getRegistrationId(\n        address _nominatedRegulator\n    ) external view returns (uint) {\n        return resgistrationPerAddr[_nominatedRegulator];\n    }\n\n    function verify_regulator(\n        address _regulatorAddress\n    ) external view returns (bool) {\n        return isHealthRegulator[_regulatorAddress];\n    }\n\n    function register_attestation(\n        address _healthID,\n        address _ownerPublicKey\n    ) external onlyRegulator {\n        require(\n            attestedHealthId[_healthID] == address(0),\n            \"Health ID already Attested\"\n        );\n        attestedHealthId[_healthID] = _ownerPublicKey;\n        whoAttested[_healthID] = msg.sender;\n    }\n\n    function verify_attestation(\n        address _healthID\n    ) external view returns (address) {\n        require(\n            attestedHealthId[_healthID] != address(0),\n            \"Health ID is not present\"\n        );\n        return attestedHealthId[_healthID];\n    }\n\n    function revoke_attestation(address _healthID) external onlyRegulator {\n        require(\n            attestedHealthId[_healthID] != address(0),\n            \"Health ID is not present\"\n        );\n        delete attestedHealthId[_healthID];\n    }\n\n    function getRegulator(address _healthID) external view returns (address) {\n        require(\n            whoAttested[_healthID] != address(0),\n            \"Health ID is not present\"\n        );\n        return whoAttested[_healthID];\n    }\n}\n",
  "sourcePath": "/Users/prasenjitgupta/Desktop/Blockchain/HealthID-Truffle/contracts/RegistrySC.sol",
  "compiler": {
    "name": "solc",
    "version": "0.8.15+commit.e14f2714.Emscripten.clang"
  },
  "schemaVersion": "3.4.8",
  "updatedAt": "2023-06-08T13:29:14.568Z",
  "devdoc": {
    "kind": "dev",
    "methods": {},
    "version": 1
  },
  "userdoc": {
    "kind": "user",
    "methods": {},
    "version": 1
  }
}