{
  "contractName": "VerifyMsg",
  "abi": [
    {
      "inputs": [],
      "stateMutability": "nonpayable",
      "type": "constructor"
    },
    {
      "inputs": [
        {
          "internalType": "string",
          "name": "_message",
          "type": "string"
        },
        {
          "internalType": "address",
          "name": "_signer",
          "type": "address"
        },
        {
          "internalType": "bytes",
          "name": "_signature",
          "type": "bytes"
        }
      ],
      "name": "verify",
      "outputs": [
        {
          "internalType": "bool",
          "name": "",
          "type": "bool"
        }
      ],
      "stateMutability": "pure",
      "type": "function",
      "constant": true
    },
    {
      "inputs": [
        {
          "internalType": "string",
          "name": "_message",
          "type": "string"
        }
      ],
      "name": "getHashedMsg",
      "outputs": [
        {
          "internalType": "bytes32",
          "name": "",
          "type": "bytes32"
        }
      ],
      "stateMutability": "pure",
      "type": "function",
      "constant": true
    },
    {
      "inputs": [
        {
          "internalType": "bytes32",
          "name": "_hashedMsg",
          "type": "bytes32"
        }
      ],
      "name": "getEthSignedHashedMsg",
      "outputs": [
        {
          "internalType": "bytes32",
          "name": "",
          "type": "bytes32"
        }
      ],
      "stateMutability": "pure",
      "type": "function",
      "constant": true
    }
  ],
  "bytecode": "0x608060405234801561001057600080fd5b506108ac806100206000396000f3fe608060405234801561001057600080fd5b50600436106100415760003560e01c8063846d1d8314610046578063cd5b8bfa14610076578063d387eea9146100a6575b600080fd5b610060600480360381019061005b91906104ca565b6100d6565b60405161006d9190610570565b60405180910390f35b610090600480360381019061008b91906105c1565b61013a565b60405161009d91906105fd565b60405180910390f35b6100c060048036038101906100bb9190610618565b61016a565b6040516100cd91906105fd565b60405180910390f35b6000806100e28561016a565b905060006100ef8261013a565b905060006100fd828661019a565b90508573ffffffffffffffffffffffffffffffffffffffff168173ffffffffffffffffffffffffffffffffffffffff161493505050509392505050565b60008160405160200161014d91906106d9565b604051602081830303815290604052805190602001209050919050565b60008160405160200161017d9190610787565b604051602081830303815290604052805190602001209050919050565b6000806000806101a985610209565b925092509250600186828585604051600081526020016040526040516101d294939291906107c5565b6020604051602081039080840390855afa1580156101f4573d6000803e3d6000fd5b50505060206040510351935050505092915050565b60008060006041845114610252576040517f08c379a000000000000000000000000000000000000000000000000000000000815260040161024990610856565b60405180910390fd5b6020840151925060408401519150606084015160001a90509193909250565b6000604051905090565b600080fd5b600080fd5b600080fd5b600080fd5b6000601f19601f8301169050919050565b7f4e487b7100000000000000000000000000000000000000000000000000000000600052604160045260246000fd5b6102d88261028f565b810181811067ffffffffffffffff821117156102f7576102f66102a0565b5b80604052505050565b600061030a610271565b905061031682826102cf565b919050565b600067ffffffffffffffff821115610336576103356102a0565b5b61033f8261028f565b9050602081019050919050565b82818337600083830152505050565b600061036e6103698461031b565b610300565b90508281526020810184848401111561038a5761038961028a565b5b61039584828561034c565b509392505050565b600082601f8301126103b2576103b1610285565b5b81356103c284826020860161035b565b91505092915050565b600073ffffffffffffffffffffffffffffffffffffffff82169050919050565b60006103f6826103cb565b9050919050565b610406816103eb565b811461041157600080fd5b50565b600081359050610423816103fd565b92915050565b600067ffffffffffffffff821115610444576104436102a0565b5b61044d8261028f565b9050602081019050919050565b600061046d61046884610429565b610300565b9050828152602081018484840111156104895761048861028a565b5b61049484828561034c565b509392505050565b600082601f8301126104b1576104b0610285565b5b81356104c184826020860161045a565b91505092915050565b6000806000606084860312156104e3576104e261027b565b5b600084013567ffffffffffffffff81111561050157610500610280565b5b61050d8682870161039d565b935050602061051e86828701610414565b925050604084013567ffffffffffffffff81111561053f5761053e610280565b5b61054b8682870161049c565b9150509250925092565b60008115159050919050565b61056a81610555565b82525050565b60006020820190506105856000830184610561565b92915050565b6000819050919050565b61059e8161058b565b81146105a957600080fd5b50565b6000813590506105bb81610595565b92915050565b6000602082840312156105d7576105d661027b565b5b60006105e5848285016105ac565b91505092915050565b6105f78161058b565b82525050565b600060208201905061061260008301846105ee565b92915050565b60006020828403121561062e5761062d61027b565b5b600082013567ffffffffffffffff81111561064c5761064b610280565b5b6106588482850161039d565b91505092915050565b600081905092915050565b7f19457468657265756d205369676e6564204d6573736167653a0a333200000000600082015250565b60006106a2601c83610661565b91506106ad8261066c565b601c82019050919050565b6000819050919050565b6106d36106ce8261058b565b6106b8565b82525050565b60006106e482610695565b91506106f082846106c2565b60208201915081905092915050565b600081519050919050565b600082825260208201905092915050565b60005b8381101561073957808201518184015260208101905061071e565b83811115610748576000848401525b50505050565b6000610759826106ff565b610763818561070a565b935061077381856020860161071b565b61077c8161028f565b840191505092915050565b600060208201905081810360008301526107a1818461074e565b905092915050565b600060ff82169050919050565b6107bf816107a9565b82525050565b60006080820190506107da60008301876105ee565b6107e760208301866107b6565b6107f460408301856105ee565b61080160608301846105ee565b95945050505050565b7f496e76616c6964205369676e6174757265204c656e6774680000000000000000600082015250565b600061084060188361070a565b915061084b8261080a565b602082019050919050565b6000602082019050818103600083015261086f81610833565b905091905056fea2646970667358221220fe80079b353b3c644873f42ece23fa827cf69d99fbf55603b51eb1a39a9863b264736f6c634300080f0033",
  "immutableReferences": {},
  "source": "// SPDX-License-Identifier: MIT\npragma solidity >=0.4.22 <0.9.0;\n\ncontract VerifyMsg {\n    constructor() {}\n\n    function verify(\n        string memory _message,\n        address _signer,\n        bytes memory _signature\n    ) public pure returns (bool) {\n        bytes32 hashedMsg = getHashedMsg(_message);\n        bytes32 ethSignedHashedMsg = getEthSignedHashedMsg(hashedMsg);\n        address recovedSigner = recoverSigner(ethSignedHashedMsg, _signature);\n\n        return recovedSigner == _signer;\n    }\n\n    function getHashedMsg(\n        string memory _message\n    ) public pure returns (bytes32) {\n        return keccak256(abi.encode(_message));\n    }\n\n    function getEthSignedHashedMsg(\n        bytes32 _hashedMsg\n    ) public pure returns (bytes32) {\n        return\n            keccak256(\n                abi.encodePacked(\"\\x19Ethereum Signed Message:\\n32\", _hashedMsg)\n            );\n    }\n\n    function recoverSigner(\n        bytes32 _ethSignedHashedMsg,\n        bytes memory _signature\n    ) internal pure returns (address) {\n        (bytes32 r, bytes32 s, uint8 v) = splitSignature(_signature);\n\n        return ecrecover(_ethSignedHashedMsg, v, r, s);\n    }\n\n    function splitSignature(\n        bytes memory _signature\n    ) internal pure returns (bytes32 r, bytes32 s, uint8 v) {\n        require(_signature.length == 65, \"Invalid Signature Length\");\n        assembly {\n            /*\n            First 32 bytes stores the length of the signature\n\n            add(sig, 32) = pointer of sig + 32\n            effectively, skips first 32 bytes of signature\n\n            mload(p) loads next 32 bytes starting at the memory address p into memory\n            */\n\n            // first 32 bytes, after the length prefix\n            r := mload(add(_signature, 32))\n            // second 32 bytes\n            s := mload(add(_signature, 64))\n            // final byte (first byte of the next 32 bytes)\n            v := byte(0, mload(add(_signature, 96)))\n        }\n    }\n}\n",
  "sourcePath": "/Users/prasenjitgupta/Desktop/Blockchain/HealthID-Truffle/contracts/VerifyMsg.sol",
  "compiler": {
    "name": "solc",
    "version": "0.8.15+commit.e14f2714.Emscripten.clang"
  },
  "schemaVersion": "3.4.8",
  "updatedAt": "2023-06-08T11:35:03.426Z",
  "networkType": "ethereum",
  "devdoc": {
    "kind": "dev",
    "methods": {},
    "version": 1
  },
  "userdoc": {
    "kind": "user",
    "methods": {},
    "version": 1
  }
}